:1000000000000320D1010000E50400009D04000071
:100010009D0400009D0400009D0400009D0400005C
:100020009D0400009D0400009D040000E504000004
:10003000E50400009D0400005D1700006118000049
:10004000E5040000E5040000E5040000E50400000C
:10005000E5040000E5040000E5040000E5040000FC
:10006000E5040000E5040000E5040000E5040000EC
:10007000E5040000E5040000E5040000E5040000DC
:10008000E5040000E5040000E5040000E5040000CC
:10009000E5040000E5040000E5040000E5040000BC
:1000A000E5040000E5040000E5040000E5040000AC
:1000B000E5040000E5040000E5040000451A000026
:1000C000E5040000711B0000E50400009D1C000019
:1000D000E5040000951D0000E5040000E5040000B3
:1000E000E5040000E5040000E5040000E50400006C
:1000F000E5040000E5040000E5040000E50400005C
:10010000E5040000E5040000E5040000E50400004B
:10011000E5040000C1090000E5040000E50400005A
:10012000E5040000E5040000E5040000E50400002B
:10013000E5040000E5040000E5040000E50400001B
:10014000E5040000E50400008D1E0000E504000049
:10015000E5040000E5040000E5040000E5040000FB
:10016000E5040000E5040000E5040000E5040000EB
:10017000E5040000E5040000E5040000E5040000DB
:10018000E5040000E5040000E5040000E5040000CB
:10019000E5040000E5040000851F0000E504000000
:1001A000E5040000E5040000E5040000E5040000AB
:1001B000E5040000E5040000E5040000E50400009B
:1001C000E5040000E5040000E5040000E50400008B
:1001D0005C4B4CF2205210B51A804DF628121A8052
:1001E00000BF00BF00F082F9574B4FF030621A6039
:1001F000564A9A60564ADA60564B4FF470021A60BB
:10020000554B564A1A60564B1A78110703D51A787F
:1002100042F008021A70534B5349AA221A70534AEB
:10022000534B8B4204D252F8040F43F8040BF8E707
:10023000504B514900228B4202D243F8042BFAE77B
:100240004E494F4A002352F8230041F8230001335E
:10025000742BF8D14B4B4C4A802103F8011B93427D
:10026000FBD14A4B454A1A60494B8A221A70A3F5C2
:10027000805324225A70A0221A709A799207FCD5D2
:100280009A79D406FCD4434A937903F00C03082BE3
:10029000FAD1414B60221A7002331A78802AFCD1BD
:1002A0003C4B01221A715D225A719A799006FCD555
:1002B0009979384A4906FBD5384B394919600021EC
:1002C000596020231370937903F00C030C2BFAD19F
:1002D000344B354A1A60354A354C136813F4807331
:1002E00003D123604FF4A8531360324B324A1A6093
:1002F00000225A60072243F8042C304AC3F80C2D20
:1003000062B600F001FA2368DA0705D52C4800F040
:100310008BF92C4B2C4A1A602C4B1B785B0609D5A9
:10032000284C294B22689A4204D1254800F07CF9D8
:100330000023236001F00EFF00F0DEF801F098FAD0
:10034000FEE700BF0E20054030800440823F0400DD
:100350000100002B88ED00E0002008E0030000858C
:1003600002D0074000E00740080CFF1F00250000F6
:100370003007FF1F080CFF1F5410FF1F0002FF1F54
:100380000000000000E400E064E400E008ED00E0AC
:10039000005006400040064001E007404480044011
:1003A0000000060204800440C010070010D0034083
:1003B00014D0034014E000E01FBF02000000202022
:1003C000C134CB5E1CE00340A5C3945A00F0074043
:1003D000FFFFFFFFFFFFFFFFFFFFFFFFFFFFFFFF2D
:1003E000FFFFFFFFFFFFFFFFFFFFFFFFFFFFFFFF1D
:1003F000FFFFFFFFFFFFFFFFFFFFFFFFFFFFFFFF0D
:10040000FFFFFFFFFFFFFFFFFFFFFFFFDEF9FFFF23
:1004100010B5054C237833B9044B13B10448AFF33E
:1004200000800123237010BD080CFF1F0000000096
:1004300004250000084B10B51BB108490848AFF36C
:1004400000800848036803B910BD074B002BFBD0A0
:10045000BDE81040184700BF000000000C0CFF1F53
:1004600004250000080CFF1F0000000001210D20E2
:1004700000F0F2B808B501210D2000F0E7F84FF4C4
:100480007A7000F0EFF80D20002100F0DFF84FF453
:100490007A70BDE8084000F0E5B800BF08B5104C20
:1004A00008E0236859050DD423681A050FD4236882
:1004B000DB0411D423685803F3D500F081FA2368D4
:1004C0005905F1D501F0BEFA23681A05EFD501F000
:1004D0004FFB2368DB04EDD501F0E0FBEAE700BF4A
:1004E0003480044008B5FFF7D9FF00BF014B10224C
:1004F0001A80704700200540704700BF084A1378F3
:10050000802B01D0002070470649074B0748086040
:10051000002119701378802BFCD00120704700BF98
:1005200003E007404480044001E007400000282227
:10053000094A1378012B01D00020704703F1804352
:1005400003F5FC23602119701378802BFCD1034B39
:10055000034A1A600120704703E0074044800440CA
:100560000000060210B4114B53F8302092F880427C
:1005700034B1012379B182F880305DF8044B7047C3
:1005800003EBC0035B681A6851B922F002021A60DB
:100590005DF8044B704782F800315DF8044B7047FA
:1005A00042F003021A605DF8044B7047902200008D
:1005B0001C4A02EBC00301295B6811D004291BD03F
:1005C00052F83000002280F8802229B1022920D080
:1005D000032922D01A6070474FF480721A60704766
:1005E00052F830004FF4A27280F880121A601A6834
:1005F00022F020021A60704752F830104FF4A272B5
:10060000012081F880021A601A6842F020021A6004
:10061000704740F203121A6070474FF481721A60FB
:10062000704700BF9022000030B4054B054D064CCA
:10063000002210211A602A602060196030BC7047C7
:1006400014D0034004D0034000D003403F2801D819
:10065000FFF788BF704700BF3F2801D8FFF7A8BF4A
:10066000704700BF2DE9F843054672B6224F234B71
:10067000234A1B683C68126862B6520102D5322BCD
:1006800088BF0134B5B3C3F52F3303F21F331D4EBA
:10069000DFF86890DFF868809B084FF47A72A6FB59
:1006A000031302FB04F404EB930472B6D9F80010B0
:1006B0003A68D8F800E062B6C1F52F3303F21F3371
:1006C0009B08A6FB03031EF0806FC4EB93034FF45B
:1006D0007A7002D0322988BF013200FB0233B3F5B1
:1006E0007A7F04D3013D05D004F57A74DDE701F08B
:1006F000C7F8DAE7BDE8F883240CFF1F18E000E034
:1007000004ED00E0176CC116F8B54E4B4E48DFF80B
:100710005CC14E4C4E49DFF858E14E4E4E4D4F4FA6
:100720004FF000621A604FF080521A604FF0005292
:100730001A604FF080421A604FF000421A600022A7
:10074000026028234EF6FF70CCF80000CEF800308F
:1007500023600EF5012E0B6033602B6006F500263A
:100760003B6005F50025A36207F500278B6204F5C1
:10077000012401F5012106F6E87605F6E87507F58E
:100780007F6710310EF1100E203433602B60CEF8ED
:1007900000303B600B602360314CBB618B610921F1
:1007A0002160A7F5002704F58054203F08343A6003
:1007B0002060BB60E36047F8041C04F5FD2407F5E6
:1007C000FE27043704F2FC7422603860A360FB60EB
:1007D00044F8041C083404F6FC74C7F8FC2F2060AD
:1007E000A4F5E124A4F2DC7433602B60C7F8F81F91
:1007F00021681C4841F40071216001681A4C0EF513
:100800007F4E0EF1E80E07F5883706F5803605F5C0
:10081000803541F000710160CEF8002047F6FF718D
:100820000822396033602B60226001F08BF81920B8
:10083000FFF718FF00F02AFE40F21310BDE8F84061
:10084000FFF710BF04E100E0048003401480034080
:100850001C800340248003402C80034034800340EC
:10086000008003400480044000900C400880034056
:100870000C80034030B472B62B4A13781D0706D59E
:100880002A4B196A002936D0996A002941D0537839
:100890001C0706D5254B196C00293ED0996C002900
:1008A00039D09378190705D5204B196E002936D019
:1008B000996E89B1D3781B0707D51C4BD3F88020DC
:1008C0007AB3D3F8882011213AB162B6184B0022CE
:1008D0001A7030BC00F07ABE0D21154C154D2278EF
:1008E00043F8315003EBC1030830013A58602270DD
:1008F00062B630BC704704220D4C0F4D217843F88E
:10090000325003EBC20308304A1E5860227062B6B0
:10091000EFE70521E1E70921DFE70822ECE70C22F8
:10092000EAE71022E8E700BF902400000000FF1F64
:10093000FD0CFF1FC800400088004000431E032B31
:100940001DD81B4A400140F0100030B4104472B66C
:10095000184CE25C032A1BD8DFE802F002121517DC
:1009600003220D88E25410F0080F14BFC823882317
:1009700043EA054308310360416062B630BC70470A
:1009800008300222EDE70522EBE708300422E8E711
:10099000094A52F8230038B1084A52F8230041604E
:1009A00042F8231062B6E9E742F82310034AF7E75A
:1009B0000000FF1F0C0DFF1FD40CFF1FE40CFF1FD6
:1009C0002DE9F04FDFF818B3DFF818A387B044E043
:1009D000AE4F4FEA930807EBC809013ED9F804204F
:1009E00003F00803F6B2A2F1080003F0FF04002BA5
:1009F00040F0048157F838301B0C99B222F8081CDB
:100A0000002B00F0F280A24B22F8064C42F8044C76
:100A100053F82620002A00F06E819E4D55F82630AE
:100A200058609D4C45F8260034F81630194424F8D7
:100A3000161000F0ABFD002800F05681974A984B45
:100A400019F0080F00F1080018BF1346C9F8040098
:100A500047F8383008238BF800309BF80040E4B2A8
:100A600061071BD58F4B1B78ABB18F490A7802F019
:100A7000FF032AB1013BDBB20B70002B00F0EF84C7
:100A80008A490A7802F0FF032AB1013BDBB20B70FE
:100A9000002B00F0F78004238BF8003004F00803EB
:100AA00003F0FF02002B00F0D6809AF80030DBB292
:100AB0001E098DD19C08DFF8D49159F8342009EB38
:100AC000C401C2F38302013A49680C2A7ED8DFE8E8
:100AD00002F081817D7D7D7D7D7D477D7D7D07006F
:100AE0000868734D4A68734F734E286081B240F2B4
:100AF00081606A4B6A604FF0010E0022814249F822
:100B000034303A60C9F81020C9F8182086F800E09F
:100B10005E4C00F2F480B1F5D06F80F07883B1F5CF
:100B2000817F00F0628300F28782802900F0EC82EE
:100B3000822940F01E83A98801F07F01042900F278
:100B400018835E485E4C8900084422706270027807
:100B5000930740F1798384F800E04FF0020ED8E269
:100B6000544F3A6842B3574B534E5749188834781C
:100B70000D784028864645F0020828BF4FF0400E09
:100B8000002C84F001043470CEEB00000CBF8824EC
:100B9000C82409EBC80680B285F0010544EA0E447A
:100BA0007260188049F8384072440D7018B9BEF16F
:100BB000400F18BF00223A603D4B1A88B2F5A06F73
:100BC00004D100219A785970404B1A70404A012391
:100BD00013703FE7364A158842F22100854200F043
:100BE000FF812E4A49F83420F0E72C4A2C4B19F0AB
:100BF000080F18BF134647F838302BE700F0E6FC23
:100C0000344A354952F82630002B00F0B681586836
:100C10008C5D42F8260003F10802C9F80420032C79
:100C200005D8DFE804F0120F150204228A551A884D
:100C300019F0080F0CBF8823C82343EA024347F882
:100C4000383007E702228A55F1E703228A55EEE79A
:100C500005228A55EBE7E00700F11A82210600F130
:100C60004982A20706D51D4A1D4913780220DBB22E
:100C700013700870E30602D5194B10221A7007B0E2
:100C8000BDE8F08F00F0D6FC05E700BF0000FF1FB5
:100C9000800CFF1F2C0CFF1F4010FF1FC8004000DE
:100CA00088004000080DFF1F910CFF1F100DFF1F53
:100CB000F40CFF1F280CFF1F900CFF1FC0200740E3
:100CC000000DFF1F3C0CFF1FFC0CFF1F982007406E
:100CD00094200740D40CFF1F0C0DFF1F88200740F5
:100CE0008020074090200740AB4A47F8380013782F
:100CF00001331370AEE643F82600A84D91E642F2A8
:100D00002100814200F0358100F2AF81B1F5086F1A
:100D100000F01B82B1F5106F40F02B82226AA049CF
:100D2000A8780870120600F14583D9F828209D495B
:100D3000130600F13A83D9F830209A49150600F1DC
:100D40002F83D9F838209749140600F12483D9F865
:100D500040209449100600F11983D9F848209149A0
:100D6000120600F10E83D9F850208E49130600F1C7
:100D70000383D9F858208B49150600F1F882D9F879
:100D800060208849140600F12983D9F86820854934
:100D9000100600F11E83D9F870208249120600F176
:100DA0001383D9F878207F49130600F10883D9F816
:100DB00080207C49150600F11C83D9F888207949E8
:100DC000140600F11083D9F890207649100600F13E
:100DD000C882D9F898207349120600F1BC82724883
:100DE000724A7349019073486C4D734C0497002309
:100DF00005960295804617460E461D4603943868B0
:100E000028B1446800F0E2FB2046002CF9D1002311
:100E10003B60029B30681A46002342F8253028B117
:100E2000446800F0D3FB2046002CF9D10022326048
:100E3000019A98F800301146002241F8042B039AD9
:100E40000191023B4FF0000122F81510032B09D845
:100E5000DFE813F04B0104004B0104004FF00103E5
:100E600088F800300135042D07F1040706F1040667
:100E700008F10108C3D1514C514B2278464D049FD3
:100E8000059E002129701A70130700F14F826278C5
:100E90004C49DFF810810A7010074FF00001C9F8C3
:100EA0003010C9F8381000F12B824749A2780A7037
:100EB0000021C9F85010C9F858101107DFF8E48074
:100EC00000F1DC81E2784149364C0A7000211207BA
:100ED000C9F87010C9F8781000F1B981337801931E
:100EE000002183F00102C9F89010C9F89810002081
:100EF000029080468446044635490D7845F0020E3E
:100F000009EBCE030393019B002B039B5C600CBF9A
:100F10008824C82444EA080385F0010449F83E30D7
:100F200032700C70DFF87CE02A4BDFF8A4800028D8
:100F300040F02681BCF1400F1BD144F0020C09EBBC
:100F4000CC03029CDFF85CE05C60002A40F02E815C
:100F5000020442F088029DF804304EF83C2004441C
:100F600033700D702346402803D100201A4A3B609D
:100F700010801A4A0123137028E68B5D032B00F2C0
:100F80002D8101A252F823F0550A0000550A0000F5
:100F9000DF100000E5100000FD0CFF1F2C0CFF1FF0
:100FA000080DFF1F0000FF1FE40CFF1F800CFF1F38
:100FB000D40CFF1F0C0DFF1F4010FF1F90240000DA
:100FC000C4200740C8200740CC200740D02007405D
:100FD000FC0CFF1F900CFF1F3C0CFF1F94200740D0
:100FE000928892B9B14A0D784878157050708D7812
:100FF000C8789570D07010680D79157186284D7974
:1010000089795571917100F0A580A949A94E0A7896
:10101000307882F00105002842F002020D700CBF0A
:101020008821C82149F8321009EBC20280F0010082
:10103000002130705160D4E540F20232914240F01C
:101040008D80A98801F07F01042900F292806A88CE
:10105000002A40F08E809848CDF804E089000844CA
:10106000017841F00201017041E742F22120814202
:101070007BD1A988002940F0E480904B904A9148A8
:10108000AC781D681560CDF804E00A4604702EE7C0
:101090008D4B8E4886491A614FF0020E80F800E0B1
:1010A000854F0A708A49196099608A4E8A4D8B4C27
:1010B0009A610D213970FF213170DFF840E229700B
:1010C0002270874D874A8EF800109F27012406F86A
:1010D000047C5D600470DA6007B0BDE8F08F002327
:1010E0008B55B7E401238B55B4E44FF0000388F827
:1010F0000030B7E67049784B80220D2008701A70D6
:10110000A2077FF5B7ADAEE5774C4FF0020E227027
:101110006270EA88724580F0A38165490D78402AA3
:10112000944645F0020E28BF4FF0400C04EB0C0330
:1011300009EBCE000293012344604FEA0C48CCEB4C
:10114000020001930022C824E4E6684A664C127843
:101150002270DEE7664A0F21117056E7B1F5A06FE5
:1011600007D1012300220193C1E642F221329142CC
:10117000F7D0514A0F231370544A0123137025E509
:1011800040287FF6DAAE44F002040EEBC401029E62
:101190004E60BAB19DF80410564A19703346403873
:1011A00088F8005040334EF83420DFE69DF80430D4
:1011B00033700204029B0D7042F0C80203444EF8E3
:1011C0003C20D0E69DF804101970029B404A88F834
:1011D0000050403840334EF83420C7E619F0080F6D
:1011E0000CBF022303238B5534E4A98801F07F014F
:1011F0000429BED86A88002ABBD12F48CDF804E064
:1012000089000844017821F0020101706FE63A4A32
:101210005468002CADD06888B5F804E003E00C32C7
:101220005468002CA5D013888342F8D153887345A5
:10123000F5D1000A03280CBF94F800E0B2F808E0EA
:1012400067E7CDF804E052E64FF0020E61E700F0E8
:101250009DF9002800F0F18008301D4AC4F8840090
:10126000C4F8802000F092F9002800F0E0800830F7
:10127000204AC9F88C00C9F888202FE600F086F9CA
:10128000002800F0E6800830114AC8F86400C8F869
:10129000602000F07BF9002800F0D5800830154A66
:1012A000C9F86C00C9F868200CE600BF4810FF1FA1
:1012B000FC0CFF1F900CFF1FC0200740240CFF1FD9
:1012C0005010FF1F1C0DFF1F0000FF1F9420074040
:1012D0008800400088200740802007409820074071
:1012E000400CFF1F940CFF1F000DFF1F080DFF1F78
:1012F000910CFF1FC8004000942400008C20074080
:1013000000F044F9002800F08C8008305D4AC8F8ED
:101310004400C8F8402000F039F900287BD008309C
:10132000594AC9F84C00C9F84820BEE500F02EF92A
:1013300000286AD00830534AC9F82400C9F8202090
:1013400000F024F900285AD008304F4AC9F82C0080
:10135000C9F828209BE5D1F89C00083800F036F940
:101360003DE5D1F89400083800F030F931E5C86D5A
:10137000083800F02BF902E5486D083800F026F92E
:10138000F7E4C86C083800F021F9ECE4486C083840
:1013900000F01CF9E1E4C86B083800F017F9D6E456
:1013A000486B083800F012F9CBE4C86A083800F03E
:1013B0000DF9C0E4606A083800F008F9B5E4C86FB8
:1013C000083800F003F9F2E4486F083800F0FEF83E
:1013D000E7E4C86E083800F0F9F8DCE4486E083835
:1013E00000F0F4F8D1E4D1F88C00083800F0EEF801
:1013F000E9E4D1F88400083800F0E8F8DDE42A7860
:10140000C9F8280001322A7041E52A78C9F820007D
:1014100001322A7094E72A78C9F8480001322A700C
:1014200043E52A78C8F8400001322A7073E72A7829
:10143000C9F8880001322A7050E52A78C4F8800083
:1014400001322A700EE72A78C9F8680001322A7042
:1014500038E52A78C8F8600001322A7019E700BE22
:10146000BEF1400FF44628BF4FF0400C04EB0C03D4
:1014700002930123CCEB0E004FEA0C4800220193AB
:101480003AE500BF88004000C80040002DE9F04167
:1014900000F0EAFD314C324B3248DFF8E480324E46
:1014A000DFF8E0C0314F324DDFF8DCE000221A6097
:1014B0005A609A60DA601A615A619A61DA611A6256
:1014C0005A629A62DA621A635A639A63DA631A6436
:1014D0005A649A64DA641A655A659A65DA651A6616
:1014E0005A669A66DA661A675A679A67DA67C3F8BD
:1014F00080202168C3F8842041F4802121600168A4
:1015000041F040710160032188F80010A020C3F36E
:1015100007218CF8000004F528343170C3F307402C
:10152000144938701B0E2B70CC34FF238EF800301A
:10153000114D0CF8B83C11480B70012306F8083C1B
:10154000227070264FF40014102207F82C3C2E70E5
:10155000046081F8F820BDE8F08100BF34800440C9
:101560000000FF1F00D800409C200740B02007402B
:10157000B42007401020074035E400E004E100E01B
:1015800044210740402107408020074072B60D48A3
:101590000268B2FA82F30B2B10DC4FF00041D94005
:1015A00022EA0102026062B6074803EBC303DB00D4
:1015B000C2180021C15010465160704762B6002029
:1015C000704700BF3007FF1FD003FF1F0D4B0E4AAF
:1015D000C31AA2FB03231B090B2B0CD80B4A12784E
:1015E00052B972B60A484FF00041026821FA03F37B
:1015F0001A43026062B67047064A1278002AF0D099
:10160000FFF738B9D003FF1F398EE338FD0CFF1FF9
:101610003007FF1F080DFF1F044B054A1B68908809
:101620001BB11A885B88D31A18447047180DFF1F26
:101630004010FF1F38B50E4B1B7873B90D4C216855
:1016400061B103F0FF054B880B800420FFF776F9AA
:10165000256038BD084B01221A7038BDFFF796FF90
:101660000028F7D00146BDE838400420FFF766B9EE
:10167000110DFF1F140DFF1F100DFF1F10B4EFF30E
:10168000108272B6437F33B9017F012908D0032944
:1016900010D00123437702B962B65DF8044B70475E
:1016A000114C2168A1B1114943610B688361086045
:1016B0005861EEE70E4C216881B10E4943610B6819
:1016C0008361086058610C4B4FF080511960E0E76E
:1016D000064B4161816120601860DAE7054B41618A
:1016E000816120601860EEE7300DFF1F2C0DFF1F99
:1016F000200DFF1F240DFF1F04ED00E010B4047F38
:101700004160022CC26003D05DF8044BFFF7B6BF06
:1017100083685DF8044B184770B5EFF3108272B61A
:101720000C4C206880B10C4E00254369236073B1D6
:101730009D6102B962B6457783689847EFF31082DE
:1017400072B620680028F0D102B962B670BD33606D
:10175000EFE700BF200DFF1F240DFF1FFFF7DCBFC9
:10176000184A30B41468002C27D0036821688B42D3
:101770000ED2CB1A00218460C1602360E06010604B
:101780000223037530BC704711688B42144608D39E
:10179000A2685B1A0360002AF6D18260C460A06070
:1017A000EEE7D268C2608460E060C568CB1A0222AE
:1017B000A8602360027530BC70478460C46010600C
:1017C000DEE700BF280DFF1FF8B5224E34682CB3AA
:1017D0002368002B3AD1204F1D4604E03468ECB159
:1017E0002368002B32D1A36803B1DD602069336028
:1017F000036825751B68BB4221D1037F4560022B1E
:10180000C46020D0FFF73AFF6368002BE6D0236066
:101810002046FFF7A5FF3468002CE1D1EFF31083D9
:1018200072B60E4A00211068116003B962B628B181
:101830008468FFF795FF20460028F9D1F8BD2246BD
:1018400000219847E0E783689847DDE7013B236084
:10185000E4E700BF280DFF1FFD160000380DFF1F35
:10186000024A136801331360FFF7AEBF240CFF1F59
:1018700008B5FEF7FBFDFEF7FDFD00F001F8FAE705
:1018800038B52C4C237803B138BD01232370FFF702
:10189000C3FE002842D100F0C5F800283BD100F07B
:1018A00057F9002834D100F0E9F970BB00F062FA72
:1018B00040BB00F0DBFA10BB00F054FBE0B90023A2
:1018C0002370EFF30583002BDED1EFF3108172B6A6
:1018D000194B186828B3194C227812BB45691D6052
:1018E000012323700DB3AA6101B962B600254577C3
:1018F000836898472570C7E700F002FCDFE700F037
:10190000FDFBD9E700F0F8FBD3E700F0F3FBCDE7F0
:1019100000F0EEFBC7E700F0E9FBC0E700F0F2FBE8
:10192000B9E70029B0D162B638BD054B1D6000296A
:10193000DCD1DAE73C0DFF1F300DFF1F340DFF1F18
:101940002C0DFF1F30B42948294A2A4B2A4D602408
:10195000E121047011701B78284C082B30D00A2B21
:101960002748284937D00C2B0CBF35225D22122383
:101970002A60236002600B60234B24491B78244AB1
:10198000BBB101230B601360224B23491B78234A10
:10199000012B26D9042B0FD9082B1ED9102B94BF4D
:1019A000862387230B6013601D4B01221A7030BC05
:1019B00070470B601360E7E784230B601360F3E765
:1019C00000F58E200F490830212213232A6023605E
:1019D00002600B60D0E73922F7E785230B601360C4
:1019E000E2E780230B601360DEE700BF00400740A2
:1019F000014007403407FF1F08B003400CB003400C
:101A000008B00B400CB00B403E0DFF1F20B0034050
:101A100020B00B403507FF1F24B0034024B00B401B
:101A20003D0DFF1F054A064B10781B78C0B2DBB294
:101A3000984238BF4030C01A704700BF440DFF1FA6
:101A4000450DFF1FF0B4384B1A7912F0300F2CD02F
:101A500072B6997D01F0FF0200293DD062B6334F86
:101A6000334938780D78334E1C46C0B2EDB2431C72
:101A7000402BE17928BF0023AB4202F1FF32C9B20B
:101A80001CBFF154184612F0FF02F0D12A4B1B681C
:101A9000C2B23A704BB1A84236BFC5F14005401BF7
:101AA00040192728C4BF01221A701F49CA78D2B230
:101AB000150616D452060DD51B4B1B795B0609D5AE
:101AC0001E4B1F491B6800220A7003B11A70164B87
:101AD0003C22DA70F0BC70474022D9795A7462B661
:101AE000E3E70B791C06E5D5164B174E1C783378C7
:101AF000E4B2DBB29C420ED0144D01E0A3420AD006
:101B00000133402B28BF00230879E85CC0B2C871BC
:101B1000087D0728F2D9DBB2034933700B79180628
:101B200044BF7C23CB70C5E700A00640440DFF1FD7
:101B3000450DFF1F880DFF1F400DFF1FCC0DFF1F20
:101B4000C80DFF1FD00DFF1FC90DFF1F480DFF1F40
:101B5000054A064B10781B78C0B2DBB2984238BFFA
:101B60004030C01A704700BF440EFF1FD90DFF1F41
:101B7000F0B4384B1A7912F0300F2CD072B6997D30
:101B800001F0FF0200293DD062B6334F3349387867
:101B90000D78334E1C46C0B2EDB2431C402BE179A8
:101BA00028BF0023AB4202F1FF32C9B21CBFF1547F
:101BB000184612F0FF02F0D12A4B1B68C2B23A70ED
:101BC0004BB1A84236BFC5F14005401B401927283C
:101BD000C4BF01221A701F49CA78D2B2150616D4A2
:101BE00052060DD51B4B1B795B0609D51E4B1F49B1
:101BF0001B6800220A7003B11A70164B3C22DA707F
:101C0000F0BC70474022D9795A7462B6E3E70B7989
:101C10001C06E5D5164B174E1C783378E4B2DBB2C0
:101C20009C420ED0144D01E0A3420AD00133282B70
:101C300028BF00230879E85CC0B2C871087D072876
:101C4000F2D9DBB2034933700B79180644BF7C2309
:101C5000CB70C5E700B00640440EFF1FD90DFF1F33
:101C6000040EFF1FD40DFF1F480EFF1FD80DFF1FCE
:101C70004C0EFF1F450EFF1FDC0DFF1F054A064BD4
:101C800010781B78C0B2DBB2984238BF4030C01A1F
:101C9000704700BF540EFF1F550EFF1F30B42B4B73
:101CA0001A7994061FD52A48DA790378294901332D
:101CB0003F2B0978C8BF00238B42D2B203D0264CF9
:101CC000D9B2E2540170254A116861B1244A1278F0
:101CD000D2B2934236BFC2F140029B1A9B18272B07
:101CE000C4BF01230B70194AD378DBB2180611D494
:101CF0005A060DD5154B1B795B0609D5194B1A49A8
:101D00001B6800220A7003B11A70104B2C22DA7083
:101D100030BC704711790906EAD5144910480C788F
:101D20000178C9B28C420DD04A1C272A84BF0021F9
:101D30000A460F4D054C98BFD1B2AA5CD2B2E271EF
:101D40000170D5E76C21D170D2E700BF00C006401A
:101D5000540EFF1F550EFF1F800EFF1F500EFF1F5A
:101D6000C10EFF1FC40EFF1FC00EFF1FC80EFF1FB6
:101D7000580EFF1F054A064B10781B78C0B2DBB225
:101D8000984238BF4030C01A704700BFD00EFF1FC6
:101D9000D10EFF1F30B42B4B1A7994061FD52A4859
:101DA000DA790378294901333F2B0978C8BF00232A
:101DB0008B42D2B203D0264CD9B2E2540170254AEC
:101DC000116861B1244A1278D2B2934236BFC2F18F
:101DD00040029B1A9B18272BC4BF01230B70194A82
:101DE000D378DBB2180611D45A060DD5154B1B79E2
:101DF0005B0609D5194B1A491B6800220A7003B10A
:101E00001A70104B2C22DA7030BC70471179090619
:101E1000EAD5144910480C780178C9B28C420DD02B
:101E20004A1C272A84BF00210A460F4D054C98BF43
:101E3000D1B2AA5CD2B2E2710170D5E76C21D17047
:101E4000D2E700BF00D00640D00EFF1FD10EFF1F0B
:101E5000FC0EFF1FCC0EFF1F3D0FFF1F400FFF1F8B
:101E60003C0FFF1F440FFF1FD40EFF1F054A064BF8
:101E700010781B78C0B2DBB2984238BF4030C01A2D
:101E8000704700BF4C0FFF1F4D0FFF1F30B42B4B8F
:101E90001A7994061FD52A48DA790378294901333B
:101EA0003F2B0978C8BF00238B42D2B203D0264C07
:101EB000D9B2E2540170254A116861B1244A1278FE
:101EC000D2B2934236BFC2F140029B1A9B18272B15
:101ED000C4BF01230B70194AD378DBB2180611D4A2
:101EE0005A060DD5154B1B795B0609D5194B1A49B6
:101EF0001B6800220A7003B11A70104B2C22DA7092
:101F000030BC704711790906EAD5144910480C789D
:101F10000178C9B28C420DD04A1C272A84BF002107
:101F20000A460F4D054C98BFD1B2AA5CD2B2E271FD
:101F30000170D5E76C21D170D2E700BF00A00E4040
:101F40004C0FFF1F4D0FFF1F780FFF1F480FFF1F84
:101F5000B90FFF1FBC0FFF1FB80FFF1FC00FFF1FE0
:101F6000500FFF1F054A064B10781B78C0B2DBB23A
:101F7000984238BF4030C01A704700BFC80FFF1FDB
:101F8000C90FFF1F30B42C4B5A6894021FD52B4841
:101F9000DA6803782A4901333F2B0978C8BF002348
:101FA0008B4204D0274CD2B2D9B2E2540170264AF7
:101FB000116861B1254A1278D2B2934236BFC2F19C
:101FC00040029B1A9B18272BC4BF01230B701A4A8F
:101FD0009368180202D55268110211D45A020DD525
:101FE000154B5B685B0209D5194B1A491B68002227
:101FF0000A7003B11A70184B00221A6030BC704787
:10200000164A124910780A78D2B290420DD00132A5
:10201000272A84BF00200246114D074C98BFD0B23A
:10202000AA5CD2B2E2600870D8E70E480A4A0024DF
:10203000012104601160D1E700400C40C80FFF1F70
:10204000C90FFF1FF40FFF1FC40FFF1F3510FF1F25
:102050003810FF1F3410FF1F580188433C10FF1F2A
:10206000CC0FFF1F5C01884310B584B072B6FEF739
:1020700045FA184A184B19491160702280211A70CC
:102080001A46197013781B06FCD5154B1C68FEF711
:102090004FFA62B6134B9C429CBF04EB840464006D
:1020A0002046114C01A90A2200F02EF801A9204671
:1020B000002311F8012B01333AB10A2B20F8022F2B
:1020C000F7D11623237004B010BD5B00DBB2237080
:1020D00004B010BD040002400000024000000741AF
:1020E0000C0002407F969800C407FF1F704700BF96
:1020F000704700BF704700BF704700BF704700BF08
:10210000704700BF704700BFF0B44D1E2E4600243C
:1021100000E00134B0FBF2F302FB1300092800F1E8
:1021200030078ABF3730F8B2C0B206F8010F184640
:10213000002BEED10A1953704CB1107815F8016FCD
:1021400028700133E01A834202F80169F5DB084682
:10215000F0BC704770B50F4E0F4D761BB61018BF10
:10216000002405D0013455F8043B9847A642F9D124
:102170000A4E0B4D761B00F0B9F9B61018BF0024BB
:1021800006D0013455F8043B9847A642F9D170BDFA
:1021900070BD00BFF8240000F824000000250000F6
:1021A000F8240000024B13B1024800F005B8704754
:1021B00000000000C5210000002301461A46184611
:1021C00000F014B838B5074D074C2C1BA41005D0EF
:1021D000013C55F8043D9847002CF9D1BDE8384042
:1021E00000F08EB900000000000000002DE9F0476B
:1021F000254C2568D5F848410646884692469946BA
:10220000C4B360681F2817DC431C76B104EB80055B
:102210000122C5F888A0D4F8881182401143022E0B
:10222000C4F88811C5F808911ED00230636044F8E4
:1022300020800020BDE8F087144B03B34FF4C87032
:10224000AFF300800446D0B1D5F84831002780E8CC
:102250008800C5F8484138460123C4F88871C4F89D
:102260008C71002EE1D0D1E7D4F88C110A43C4F868
:102270008C21DAE705F5A674C5F84841C1E74FF0AF
:10228000FF30BDE8F08700BFE82400000000000038
:102290004008FE4340A004404408FE4344A00440DC
:1022A0000018FE4300C004403000FE43309004405C
:1022B0003400FE43349004401C18FE431CC004400C
:1022C0001018FE4310C004400818FE4308C0044024
:1022D0000C18FE430CC004400C10FE430CB004402C
:1022E0001010FE4310B004401810FE4318B0044014
:1022F0001C10FE431CB004401410FE4314B00440F4
:102300000418FE4304C004400010FE4300B0044023
:102310000008FE4300A004400408FE4304A004405B
:102320000C08FE430CA004400808FE4308A004402B
:102330001418FE4314C004401818FE4318C004408B
:102340000410FE4304B004400810FE4308B00440EB
:102350006820FE4368D004401400FE4314900440FB
:102360003800FE43389004403C00FE433C9004405B
:102370004000FE43409004404808FE4348A004400B
:102380004C08FE434CA004402808FE4328A004400B
:102390002C08FE432CA004406020FE4360D0044083
:1023A0006420FE4364D004402010FE4320B004406B
:1023B0002410FE4324B004402810FE4328B00440FB
:1023C0002C10FE432CB004404400FE4344900440D3
:1023D0007000FE43709004407400FE43749004400B
:1023E0006800FE43689004405008FE4350A004403B
:1023F0005808FE4358A004405C08FE435CA004401B
:102400005408FE4354A004402018FE4320C004405A
:102410002418FE4324C004401008FE4310A00440CA
:102420001408FE4314A004403818FE4338C004408A
:102430003418FE4334C004403018FE4330C004401A
:102440003C18FE433CC004402C18FE432CC0044002
:102450002820FE4328D004402C20FE432CD00440EA
:102460000020FE4300D004400420FE4304D004407A
:102470000820FE4308D004400C20FE430CD004404A
:102480001020FE4310D004401420FE4314D004401A
:1024900000151915000100003807FF1F1200000089
:1024A000000200006407FF1F43000000000300005B
:1024B000C007FF1F00000000010309044C07FF1FB5
:1024C0000000000002030904A807FF1F000000002D
:1024D00003030904C407FF1F000000000000000000
:1024E0000000000000000000E007FF1FF8B500BF7B
:1024F000F8BC08BC9E467047A521000035040000CA
:04250000F8B500BF6B
:10250400FFFFFFFF0A040000120110010200004057
:10251400C01683047702010203010000180354006B
:10252400650065006E007300790064007500690041
:102534006E006F0009024300020100C0320904006A
:10254400000102020100052400100105240101011B
:102554000424020605240600010705820310004036
:1025640009040100020A00000007050302400000FC
:102574000705840240000000160355005300420082
:102584002000530065007200690061006C000000C7
:10259400040309040C030000000000000000000014
:1025A4000000000000000000000000000000000027
:1025B40000000000CC0AFF1F340BFF1F9C0BFF1F01
:1025C4000000000000000000000000000000000007
:1025D40000000000000000000000000000000000F7
:1025E40000000000000000000000000000000000E7
:1025F40000000000000000000000000000000000D7
:1026040000000000000000000000000000000000C6
:1026140000000000000000000000000000000000B6
:1026240000000000000000000000000000000000A6
:102634000000000000000000000000000000000096
:102644000000000000000000000000000000000086
:102654000000000000000000010000000000000075
:102664000E33CDAB34126DE6ECDE05000B0000003A
:102674000000000000000000000000000000000056
:102684000000000000000000000000000000000046
:102694000000000000000000000000000000000036
:1026A4000000000000000000000000000000000026
:00000001FF
